:10000000E8410020E1200000B5650000CD2000009F
:10001000CD200000CD200000CD2000000000000019
:100020000000000000000000000000005522000059
:10003000CD20000000000000212200002138000037
:100040008923000089230000892300008923000000
:1000500089230000892300008923000089230000F0
:1000600089230000892300008923000089230000E0
:1000700089230000892300008923000089230000D0
:1000800089230000892300008923000089230000C0
:1000900089230000892300008923000089230000B0
:1000A00089230000892300008923000089230000A0
:1000B0008923000089230000892300008923000090
:1000C0008923000089230000892300008923000080
:1000D0008923000089230000892300008923000070
:0C00E00089230000892300008923000010
:0400EC00FFFFFFFF14
:1000F00081F0004102E000BF83F0004330B54FEAD9
:1001000041044FEA430594EA050F08BF90EA020F45
:100110001FBF54EA000C55EA020C7FEA645C7FEAD8
:10012000655C00F0E2804FEA5454D4EB5555B8BFFB
:100130006D420CDD2C4480EA020281EA030382EA6C
:10014000000083EA010180EA020281EA0303362DFE
:1001500088BF30BD11F0004F4FEA01314FF4801CD1
:100160004CEA113102D0404261EB410113F0004FE3
:100170004FEA03334CEA133302D0524263EB43039A
:1001800094EA050F00F0A780A4F10104D5F1200E38
:100190000DDB02FA0EFC22FA05F2801841F1000193
:1001A00003FA0EF2801843FA05F359410EE0A5F167
:1001B00020050EF1200E012A03FA0EFC28BF4CF098
:1001C000020C43FA05F3C01851EBE37101F000454E
:1001D00007D54FF0000EDCF1000C7EEB00006EEB5B
:1001E0000101B1F5801F1BD3B1F5001F0CD34908E5
:1001F0005FEA30004FEA3C0C04F101044FEA44523C
:1002000012F5800F80F09A80BCF1004F08BF5FEAC2
:10021000500C50F1000041EB045141EA050130BDA2
:100220005FEA4C0C404141EB0101013C28BFB1F5B4
:10023000801FE9D291F0000F04BF01460020B1FAFF
:1002400081F308BF2033A3F10B03B3F120020CDAD2
:100250000C3208DD02F1140CC2F10C0201FA0CF0B0
:1002600021FA02F10CE002F11402D8BFC2F1200C15
:1002700001FA02F120FA0CFCDCBF41EA0C019040CB
:10028000E41AA2BF01EB0451294330BD6FEA040414
:100290001F3C1CDA0C340EDC04F11404C4F12002FF
:1002A00020FA04F001FA02F340EA030021FA04F311
:1002B00045EA030130BDC4F10C04C4F1200220FA68
:1002C00002F001FA04F340EA0300294630BD21FAA6
:1002D00004F0294630BD94F0000F83F4801306BF6C
:1002E00081F480110134013D4EE77FEA645C18BF60
:1002F0007FEA655C29D094EA050F08BF90EA020FF7
:1003000005D054EA000C04BF1946104630BD91EAEE
:10031000030F1EBF0021002030BD5FEA545C05D1F1
:100320004000494128BF41F0004130BD14F5800430
:100330003CBF01F5801130BD01F0004545F0FE41A4
:1003400041F470014FF0000030BD7FEA645C1ABFD9
:10035000194610467FEA655C1CBF0B46024650EA10
:10036000013406BF52EA033591EA030F41F400213C
:1003700030BD00BF90F0000F04BF0021704730B5C2
:100380004FF4806404F132044FF000054FF0000197
:1003900050E700BF90F0000F04BF0021704730B558
:1003A0004FF4806404F1320410F0004548BF40422D
:1003B0004FF000013EE700BF42004FEAE2014FEA82
:1003C00031014FEA02701FBF12F07F4393F07F4F5D
:1003D00081F06051704732F07F4208BF704793F060
:1003E0007F4F04BF41F40021704730B54FF4607473
:1003F00001F0004521F000411CE700BF50EA010276
:1004000008BF704730B54FF000050AE050EA01021E
:1004100008BF704730B511F0004502D5404261EB8E
:1004200041014FF4806404F132045FEA915C3FF4CF
:10043000D8AE4FF003025FEADC0C18BF03325FEA6C
:10044000DC0C18BF033202EBDC02C2F1200300FA1D
:1004500003FC20FA02F001FA03FE40EA0E0021FA42
:1004600002F11444BDE600BF70B54FF0FF0C4CF430
:10047000E06C1CEA11541DBF1CEA135594EA0C0FE2
:1004800095EA0C0F00F0DEF82C4481EA030621EA1D
:100490004C5123EA4C5350EA013518BF52EA033558
:1004A00041F4801143F4801338D0A0FB02CE4FF00A
:1004B0000005E1FB02E506F00042E0FB03E54FF03A
:1004C0000006E1FB03569CF0000F18BF4EF0010E32
:1004D000A4F1FF04B6F5007F64F5407404D25FEA2E
:1004E0004E0E6D4146EB060642EAC62141EA5551E1
:1004F0004FEAC52040EA5E504FEACE2EB4F1FD0C23
:1005000088BFBCF5E06F1ED8BEF1004F08BF5FEAA0
:10051000500E50F1000041EB045170BD06F0004652
:1005200046EA010140EA020081EA0301B4EB5C04FF
:10053000C2BFD4EB0C0541EA045170BD41F48011F7
:100540004FF0000E013C00F3AB8014F1360FDEBF1C
:10055000002001F0004170BDC4F10004203C35DAF8
:100560000C341BDC04F11404C4F1200500FA05F37B
:1005700020FA04F001FA05F240EA020001F000421C
:1005800021F0004110EBD37021FA04F642EB060192
:100590005EEA430E08BF20EAD37070BDC4F10C04BC
:1005A000C4F1200500FA04F320FA05F001FA04F280
:1005B00040EA020001F0004110EBD37041F100016C
:1005C0005EEA430E08BF20EAD37070BDC4F1200577
:1005D00000FA05F24EEA020E20FA04F301FA05F2DF
:1005E00043EA020321FA04F001F0004121FA04F287
:1005F00020EA020000EBD3705EEA430E08BF20EA57
:10060000D37070BD94F0000F0FD101F00046400090
:1006100041EB010111F4801F08BF013CF7D041EA12
:10062000060195F0000F18BF704703F00046520016
:1006300043EB030313F4801F08BF013DF7D043EAE7
:100640000603704794EA0C0F0CEA135518BF95EA9D
:100650000C0F0CD050EA410618BF52EA4306D1D124
:1006600081EA030101F000414FF0000070BD50EA43
:10067000410606BF1046194652EA430619D094EACD
:100680000C0F02D150EA013613D195EA0C0F05D1B7
:1006900052EA03361CBF104619460AD181EA03010B
:1006A00001F0004141F0FE4141F470014FF00000C3
:1006B00070BD41F0FE4141F4780170BD70B54FF05E
:1006C000FF0C4CF4E06C1CEA11541DBF1CEA1355DE
:1006D00094EA0C0F95EA0C0F00F0A7F8A4EB0504C0
:1006E00081EA030E52EA03354FEA013100F08880B7
:1006F0004FEA03334FF0805545EA131343EA126380
:100700004FEA022245EA111545EA10654FEA002634
:100710000EF000419D4208BF964244F1FD0404F5ED
:10072000407402D25B084FEA3202B61A65EB030549
:100730005B084FEA32024FF480104FF4002CB6EB06
:10074000020E75EB030E22BFB61A754640EA0C0086
:100750005B084FEA3202B6EB020E75EB030E22BFC6
:10076000B61A754640EA5C005B084FEA3202B6EB07
:10077000020E75EB030E22BFB61A754640EA9C00C6
:100780005B084FEA3202B6EB020E75EB030E22BF96
:10079000B61A754640EADC0055EA060E18D04FEA54
:1007A000051545EA16754FEA06164FEAC30343EAF4
:1007B00052734FEAC2025FEA1C1CC0D111F4801FC1
:1007C0000BD141EA00014FF000004FF0004CB6E7BA
:1007D00011F4801F04BF01430020B4F1FD0C88BF59
:1007E000BCF5E06F3FF6AFAEB5EB030C04BFB6EB64
:1007F000020C5FEA500C50F1000041EB045170BD57
:100800000EF0004E4EEA113114EB5C04C2BFD4EB83
:100810000C0541EA045170BD41F480114FF0000E07
:10082000013C90E645EA060E8DE60CEA135594EA83
:100830000C0F08BF95EA0C0F3FF43BAF94EA0C0F86
:100840000AD150EA01347FF434AF95EA0C0F7FF4FB
:1008500025AF104619462CE795EA0C0F06D152EA4F
:1008600003353FF4FDAE1046194622E750EA410633
:1008700018BF52EA43067FF4C5AE50EA41047FF444
:100880000DAF52EA43057FF4EBAE12E74A0011D2F6
:1008900012F5001211D20DD56FF47873B3EB6252DA
:1008A0000ED44FEAC12343F0004343EA505323FAE6
:1008B00002F070474FF00000704750EA013002D15B
:1008C0004FF0FF3070474FF0000070477BB972B9AE
:1008D0000029BEBF00204FF0004106E008BF0028FD
:1008E0001CBF6FF000414FF0FF3000F057B8ADF182
:1008F000080C6DE904CE002909DB002B1ADB00F09F
:100900004FF8DDF804E0DDE9022304B0704740420F
:1009100061EB4101002B1BDB00F042F8DDF804E045
:10092000DDE9022304B0404261EB4101524263EB36
:1009300043037047524263EB430300F031F8DDF8A4
:1009400004E0DDE9022304B0404261EB410170475D
:10095000524263EB430300F023F8DDF804E0DDE9E5
:10096000022304B0524263EB4303704753B94AB9C0
:10097000002908BF00281CBF4FF0FF314FF0FF30A7
:1009800000F00CB8ADF1080C6DE904CE00F008F8E9
:10099000DDF804E0DDE9022304B07047704700BFD2
:1009A0002DE9F04786468C4608461546744619469A
:1009B000089E002B40F0C2808542B2FA82F245D9EF
:1009C0004AB1C2F1200300FA02FC2EFA03F395406B
:1009D00043EA0C0C94404FEA154EBCFBFEF8A8B25B
:1009E0000EFB18CC08FB00F9230C43EA0C43994595
:1009F00028D9EB1808F1FF3704D2994502D9A8F19C
:100A000002072B44A3EB0903B3FBFEFC0EFB1C33D4
:100A10000CFB00F0A4B244EA0344A04214D92C1900
:100A20000CF1FF3304D2A04202D9ACF102032C44F2
:100A3000241A43EA07401EB10023D4403460736097
:100A4000BDE8F0874746DDE76346F1E792BB012149
:100A5000431B4FEA154EB3FBFEFCAFB20EFB1C333B
:100A60000CFB07F8200C40EA0343984562D9EB18C9
:100A70000CF1FF3004D2984502D9ACF102002B44AE
:100A8000A3EB0803B3FBFEFC0EFB1C330CFB07F7C8
:100A9000A4B244EA0344A7424ED92C190CF1FF3307
:100AA00004D2A74202D9ACF102032C44E41B43EA6E
:100AB0000040C0E7C2F12003954020FA03F12EFA6E
:100AC00003F34FEA154EB1FBFEFC90400343AFB277
:100AD0000EFB1C100CFB07F8190C41EA004188457D
:100AE00004FA02F422D969180CF1FF3004D28845C7
:100AF00002D9ACF102002944A1EB0801B1FBFEFCD4
:100B00000EFB1C110CFB07F79BB243EA01439F420B
:100B10000ED9EB180CF1FF3104D29F4202D9ACF18F
:100B200002012B44DB1B41EA004192E76046E3E708
:100B30006146F7E76046A3E76346B7E7834206D915
:100B400016B9002108467BE7C6E900E0F9E7B3FAE9
:100B500083F78FB9834201D3724508D8BEEB0204F4
:100B600060EB030301209C461EB9002168E738466C
:100B7000FAE7C6E9004CF8E7C7F1200CBB4022FABF
:100B80000CF41C434FEA144920FA0CF3B3FBF9F8B8
:100B9000B8402EFA0CF101430EFA07F509FB1830A4
:100BA0001FFA84FE08FB0EFA0B0C43EA00439A4539
:100BB00002FA07F240D9E31808F1FF3004D29A454F
:100BC00002D9A8F102002344A3EB0A03B3FBF9F80E
:100BD00009FB183308FB0EFE89B241EA03418E453A
:100BE0002CD9611808F1FF3304D28E4502D9A8F13F
:100BF0000203214443EA0040A0FB0298A1EB0E014E
:100C00004145CE46434602D306D14D4504D2B9EB09
:100C1000020E68EB04030138002EA6D0B5EB0E02DD
:100C200061EB030101FA0CFC22FA07F34CEA03031F
:100C3000F940C6E9003198E74046C5E74346D9E7A1
:100C4000034613F8012B002AFBD1181A013870470C
:100C50002DE9F04F144688469B4651685C4B5D4A2F
:100C6000A3B032EA210128BF19461991E168002595
:100C700032EA210128BF19461A91A1691C9032EA73
:100C8000210228BF1A46636928460393524B5349F1
:100C90001892029303222B46CDE9005505F045FA40
:100CA0006069FFF767FB46A3D3E90023FFF7DCFB8E
:100CB00002460B46CDE90423494BCDE91601032238
:100CC0002846CDE9015345492B46009505F02DFAFC
:100CD000DDE91601FFF7DAFD424B0646D4E90001D3
:100CE0001B68A9421B9302DA404261EB410136A323
:100CF000D3E90023FFF7EAFDCDE91D01D4E90201A4
:100D00000029CDE91F2302DA404261EB41012EA305
:100D1000D3E90023FFF7DAFD25699946A3694FF46B
:100D20007A7492462C9A0F46B2FBF4F104FB11221E
:100D3000002BB8BF5B42CDE91412B3FBF4F204FB05
:100D40001233CDE91123189B219030461093CDF832
:100D50004CB0FFF70FFB02460B46DDE91601FFF72B
:100D6000CBF90022204BFFF77FFBFFF78FFDB5FB90
:100D7000F4F304FB1355CDE90C35219B4146CDE935
:100D800008371A9BCDE90E6006931F9BCDE90AA98F
:100D90000493209B154A05931D9B02931E9B03936E
:100DA000199B00931B9B1C9804F008F88045B4BF66
:100DB0006FF00B00002023B0BDE8F08FAFF3008090
:100DC00092CB7F48BF7D6D3F00CA9A3B0000000078
:100DD000C0810000B4820000C2810000A07C00003D
:100DE000D6810000A80A002000005940EB810000D5
:100DF0002DE9F04F14463A4B8946D4E90257516821
:100E0000384A824612EA270038BF1846A66912EA15
:100E1000210B38BF9B4612EA260838BF98469DB082
:100E200000291390206802DA404261EB41012AA3B5
:100E3000D3E90023FFF74AFDCDE91801391E284602
:100E4000CDE91A2302DA684261EB410122A3D3E91A
:100E50000023FFF73BFDCDE916234FF47A73002EF4
:100E6000B8BF7642CDE91401D4E90421B6FBF3F012
:100E700003FB1066CDE90F06B1FBF3F003FB101185
:100E8000CDE90C01B2FBF3F103FB1122DDE91634CD
:100E9000CDE90834DDE91434CDE90634139BCDE9FE
:100EA0000A1204931A9B494602931B9B50460393D4
:100EB000189B0D4A0093199BCDF8388001935B462F
:100EC00003F07CFF8145B4BF6FF00B0000201DB024
:100ED000BDE8F08FAFF3008000CA9A3B000000002D
:100EE000B4820000C0810000DF89000070B50C46AC
:100EF00091F820504E6ACEB000210B4805F0C1F9A0
:100F00002B4622464FF49671009603A8FFF7A0FEE9
:100F1000064D03AC14F8011B09B94EB070BD28682A
:100F200083685B689847F5E7738200000000002043
:100F300008B50C4B186806F034F920B9BDE8084034
:100F4000094805F09EB90121084800F027FD07482F
:100F500002F016FE064805F094F90021012003F086
:100F600005FDFAE700000020B5820000087B0000C4
:100F7000C68200002DE9F04F91B0009302F0040307
:100F80000293C2F3C2030133840705460E46DDF81F
:100F900068900392059340F0BB81041D30B107298E
:100FA00009D86FF01B0011B0BDE8F08F01F0070603
:100FB000341DC6F10806009B4FF000084FF0040AEC
:100FC000591E4FF0FF3347460193C3465346CDF8B1
:100FD00010800DB1009A22600598002800F3E88087
:100FE0009848009A824203D397488242C0F0E0803A
:100FF000039AA4EB050E92074FEA9E0000F10381CD
:101000000F2F00F2B180002D00F0058107F14002A2
:101010000DEB020C019A0CF8200C0CF8102C049823
:1010200001300490E7E07A285DD84B280ED8472895
:1010300059D829282DD8252852D054D820287AD0FC
:101040002338D0F1000B4BEB000B74E04C382E280A
:1010500049D8DFE800F070484848484848484848C0
:1010600048484B484848484848484859484B4B59D5
:101070005959704B6D487048184B184848827F4B3F
:1010800048484B487F0000204FF0000B4FF0040A07
:1010900038E001222A38C0B202FA00F010EA0E0F3E
:1010A00049D110F0625C2FD110EA020B43D06046A8
:1010B000013C5444B4FBFAF40AFB04F4002D61D063
:1010C000A3EB050CA444B4453FF66BAF002868D1F0
:1010D000042B47D159F8043B2360042304342AE04D
:1010E000019A013A01924FF0000B24E011F8010C33
:1010F0006C2834D1002011F8023C83466C2BC5D1FA
:101100004FF0080A5346D3E709F1070929F0070908
:10111000073424F00704F9E802AB35B106982044FF
:10112000B0423FF63EAFC4E900AB4FF0000B0834CD
:101130004FF0080A534611F8010F002878D0BBF190
:10114000000F7FF470AF2528F5D14FF0010B019B04
:10115000013301934FF0040AECE7584694E700206E
:101160008346A5E7082B02D06FF015001BE709F1B5
:10117000070929F00709F9E80223C4E90023082335
:101180000834D8E768B9042B02D109F10409A4E7AF
:10119000082BE9D109F1070929F0070909F1080924
:1011A000EDE7059A013A059259F8042B009210E7F1
:1011B000039A900720D54FF0010CA4EB050E4FEADF
:1011C0009E00BEF5007FCFD20F2FCDD8F5B107F12D
:1011D00040020DEB020E019AC0B20EF8200C0EF880
:1011E000102CBCF1000F3FF41AAF60F07F000EF836
:1011F000200C08F101080137C5F108024FF6DA7E2C
:101200000434069297E74FF0000CDAE7BCF1000FC8
:1012100001D00136EFE7029802360028EBD10098A2
:10122000CDE90631FFF70CFDDDE906310644E2E7C2
:10123000631BB3F5806F97D245B9A6F10804E01897
:10124000B1E600BF707A0000008D0000029A9B0892
:1012500028602B709DF81030C2B1EB7085F80280C9
:10126000B8F1000F05D0002208A8C5F1010C974283
:101270000ED14FF0000AC5F101030DF120090193D1
:101280000DF1300B574512D1601B8CE66B70E5E712
:1012900010F8013B190608D504EB0C0EB64503F017
:1012A0007F033FF67EAE04F8013B0132DFE7B8F181
:1012B000000F03D099F90020002A17DB029BD3B15D
:1012C0001AF80B2004F8012B0022019B98182044E7
:1012D000B0423FF666AE99F80000009904F8010BA1
:1012E0002046039206F0DEFA039A14440AF1010A3A
:1012F00009F10109C6E799F8002055F8223000935A
:10130000029B009845F82230FFF79AFC421CDCE76C
:101310006FF00D0047E600BF014B1860704700BF3B
:101320000400002080B505460E461746984603F097
:1013300033FB034606F092FB0446DFF81890424662
:1013400049F8003039463046A84754F8090000F003
:1013500019FF00BF080000002DE9F84F81462E4814
:101360000F4605F046F8064670B92C4C0546A046D7
:101370004FF0010BDFF8A8A0544507D3B9F1000FD7
:1013800002D04FF0010AE5B9BDE8F88F237B6BB1BD
:101390002368DB680BB12046984723681B6943B973
:1013A000636804222046196800F0C6F8013610343C
:1013B000E2E7204698470028F2D00BFA06F31D43D7
:1013C000F4E7A94695FAA5F4B4FA84F40AFA04F30A
:1013D000260108EB04146FEA030B25EA0305237BBF
:1013E00063B158F806301B698BB946447368042210
:1013F0002046196809EA0B0900F09EF8002DE1D19A
:101400001FB10120002103F0B1FA4D46BBE7204691
:1014100098470028F2D1E8E7B40A0020D07C000009
:10142000E07C0000014B53F820007047987F0000DB
:1014300008B5034608462BB1044A136000F06CFA65
:10144000002008BD6FF01500FBE700BF080000207A
:101450000023054A4FF47A711370044A044813605C
:10146000044A1360FFF7E4BF600C0020AC0A0020C0
:10147000E7630000B00A002070B50B4D297841B930
:101480000120FFF769FF094C094EB44202D3012342
:101490002B7070BD63685B791BB1236820469B6825
:1014A00098471034F1E700BF600C0020D07C0000AA
:1014B000E07C000010B50446084804F09AFF5CB1D7
:1014C000BFF35B8F064B53E8001F013943E800125E
:1014D000002AF8D1BFF35B8F10BD00BFAC0A00201B
:1014E000B00A002070B50A4B05461B689847094CA6
:1014F000094EA860B44200D370BD63685B7923B124
:101500002368294620461B6898471034F2E700BF3D
:1015100008000020D07C0000E07C0000044A054B5D
:101520009B1AB1EBD30F34BF52F831000020704743
:10153000787C0000D07C0000084B10B4C31A4468CB
:101540001B110133237143689A71012243681960AA
:1015500043685A7110BC04F06EBF00BFD07C00001D
:101560002DE9F04F85B002AF0446D7E90EA90E462B
:10157000934698463D6BBAF1000F33D0C7F80490FC
:10158000CDF800901021534600207A6BFFF7F2FC53
:101590000146154A04F007040BF0070BE40044EA87
:1015A0008B1402EA4122144344EA055417350D44D2
:1015B00025F00705ADEB050D02ADBAF1000F07D020
:1015C000CDF8009053467A6B05F11000FFF7D2FC7E
:1015D000434622463146284604F030FF0C37BD46CC
:1015E000BDE8F08F5146D4E700FE0F00406820B1FF
:1015F000034BC01A40F3CF0070474FF0FF307047E5
:10160000787C00000EB403B503AB53F8042B0146FD
:101610000448019300F0DEFE02B05DF804EB03B075
:10162000704700BF6F640000CA0605D48B064CBF2C
:1016300002490349FFF7E6BF704700BFB3820000CD
:10164000B28200002DE9F04F89B09B46149B9DF8B3
:101650004CA00693159B04460593169B0D46904699
:10166000179E0493BAF1000F00F09D8006F480737A
:10167000079304F0E1FE06F00209024600283ED07E
:1016800020469149FFF7BEFF0746B9F1000F08D089
:1016900016F0440F35D12A4620468C49FFF7B2FF99
:1016A000074406F0010353B1894B204653F82A2022
:1016B000884B8949002A08BF1A46FFF7A3FF06F4A2
:1016C0008073002B49D006F00803002B63D1B8F1DA
:1016D000000F66D0424620468049FFF793FF05463B
:1016E000069B3D44002B6DD1049B002B73D1F30767
:1016F00000F1E48031462046FFF796FFD8E0074628
:10170000C3E7774B18680028CAD0764B4FF47A7934
:101710001B684FF46161B5FBF3F5B5FBF0F300FB1B
:10172000135509FB05F5B3FBF1F2B5FBF0FE4FF0E5
:101730003C0C01FB123100FB1E55B1FBFCF309FB15
:1017400005F5B5FBF0F50CFB131120460091CDE932
:1017500001E56549FFF756FFA2E706F00803EBB184
:10176000624B204653F82A206149FFF74BFF05469C
:10177000B8F1000F05D0424620465849FFF742FF16
:101780000544BBF1000FABD05A4620465949FFF73C
:1017900039FF0544A4E74FF0000BE1E706F0080528
:1017A000E6E745469CE7BBF1010F069B06D1002BFF
:1017B00064D1049B002B7BD000250CE0002BF8D0DB
:1017C0004D485CE04D48069B22464D4904F026FDFD
:1017D000049B002B68D0DFF82C81DFF82C91049F4C
:1017E0003146102F204628BF10274FF0000BFFF77F
:1017F0001BFF5D4545DC059B494620461A78FFF7EF
:1018000001FF4FF0010B1BF0070F03D141462046AB
:10181000FFF7F8FE5F453BD9059B4946204613F884
:101820000B20FFF7EFFE0BF1010BBBF1100FEAD11C
:101830004FF0000B20463549FFF7E4FE5A46059B62
:1018400020469A5CA2F120015F2928BF2E22304950
:10185000FFF7D8FE0BF1010BBBF1100F1DD01BF0F1
:10186000070F03D141462046FFF7CCFE5F455A469D
:10187000E5D841462046FFF7C5FEEBE71F48554631
:10188000A1E741462046FFF7BDFE0BF1010BB0E793
:1018900020462049FFF7B6FEC5E7059B3B4405936C
:1018A000049BDB1B04939AD1BAF1000F7FF41FAFA6
:1018B000204609B0BDE8F04F04F003BE2046054ABB
:1018C0000549FFF79FFE15E7148300001883000009
:1018D000A87F00000F8300006A8800003D8300009D
:1018E000BC0A0020B80A002021830000BC7F000051
:1018F00041830000478300008B6400006F64000098
:10190000D5230000548300004C8300005683000060
:10191000588300005283000000210123064A9042B0
:1019200006D8064A01B901231360054B18607047B9
:10193000012140085B00F2E740420F00B80A002096
:10194000BC0A002037B543680DF107011C6809483F
:10195000656804F012FE30B99DF80710012902D124
:10196000044800F01BF801232B75206804F0A9FD42
:1019700003B030BDF07A0000F8B50D460446064FBE
:101980004618B44201D12846F8BD14F8011BBB68C3
:1019900001485B689847F4E7F07A000070B5446945
:1019A0000D46002C3FD0244A2379565CB3423DD0EB
:1019B000224A525C9A423CD1A3689847002814DA24
:1019C000022D10D0032D0FD110F1860F0BD0BFF3D5
:1019D0005B8F54E8003F43F0020344E80032002AE2
:1019E000F7D1BFF35B8F267170BD022D267101D038
:1019F0000020F9E7BFF35B8F54E8003F23F00403B6
:101A000044E80032002AF7D1BFF35B8FBFF35B8F4E
:101A100054E8003F23F0020344E80032002AF7D1E3
:101A2000BFF35B8FE4E76FF05700DDE76FF07700FF
:101A3000DAE76FF08500D7E7B8830000B4830000D1
:101A400008B5044804F01DFCBDE80840024804F055
:101A500018BC00BFBC830000F583000070B50646CB
:101A60000D4686B0002938D000248B6801220593EA
:101A70004B68204604930B6823490393234BCDE91D
:101A800000440293234604F081FD6B690122059313
:101A90002B6920460493EB681B4903931C4B00946D
:101AA000CDE90143234604F071FDEB690122039364
:101AB000184B2046CDE9014313492346009404F016
:101AC00065FDAB6901220393134B2046CDE9014329
:101AD0000D492346009404F059FD012E0DD1EFF37A
:101AE0000583103B03930D4B3246029300230649B6
:101AF0001846CDE9003304F049FD2946304606B0CA
:101B0000BDE8704001F054BFC07C00002384000099
:101B1000528400008184000090840000BE84000094
:101B200030BFFFF7FDBF00BF2DE9F04105460B4E6A
:101B3000DFF82C80324606EB0807CC1B204609490B
:101B400005F0B0FEA01942460021083C05F0B8FEA1
:101B50006C6607F10800BDE8F08100BF00000000DE
:101B600008000000F87C0000074A936893F90E1003
:101B7000002907DB526993421FBF044A536843F0B0
:101B800080535360704700BF2C0B002000ED00E035
:101B9000F0B50024364B85B00293074623460E4627
:101BA00001222046CDE90044324904F00AFD324BBF
:101BB0009B6ADB0659D5314B2046CDE90143012212
:101BC00023462C49009404F0FCFC11202A4B9B6A0C
:101BD0001D070AD52A4B01220293002325491846E6
:101BE000CDE9003304F0EDFC1220234DAB6A9C07D5
:101BF0001FD50024234B012220460293CDE9004447
:101C000023461C4904F0DDFC6B6BAA6A10060FD555
:101C100003931D4B0122CDE901432046234615497C
:101C2000009404F0CEFC1FB1AB6A23F08003AB62DA
:101C30001320114B9B6AD9070AD5144B012202933A
:101C400000230C491846CDE9003304F0BAFC1420F7
:101C5000094B9A6AD20658BF9A6A9A6A42F0FF0202
:101C60009A620023337005B0F0BD1020AEE700BFCC
:101C7000D1840000C07C000000ED00E0E78400009B
:101C80001A8500002D850000458500005B85000059
:101C9000F0B500243B4B85B00293074623460E4621
:101CA00001222046CDE90044374904F08AFC374B35
:101CB0009B6ADB0464D5364B2046CDE90143012203
:101CC00023463149009404F07CFC17202F4B9B6A7B
:101CD0001D050AD52F4B0122029300232A491846DD
:101CE000CDE9003304F06DFC1820284DAB6A9C054B
:101CF0001FD50024284B0122234902932046234666
:101D0000CDE9004404F05DFCAB6BAA6A11040FD569
:101D10000393224B0122CDE90143204623461A4971
:101D2000009404F04EFC1FB1AB6A23F40043AB6295
:101D30001920164B9B6A5A050AD5194B01220293AA
:101D4000002311491846CDE9003304F03AFC1A206B
:101D50000E4B9B6ADB050AD5124B0122029300232E
:101D600009491846CDE9003304F02BFC1B20074A33
:101D7000936A43F47F4393620023337005B0F0BD50
:101D80001620A3E77A850000C07C000000ED00E08B
:101D9000908500001A850000A1850000BA8500002A
:101DA000CF850000EA8500001FB50024374B0122D3
:101DB000029320462346CDE90044354904F001FC56
:101DC000344B9B6A9A015ED5334B2046CDE90143E3
:101DD000012223462E49009404F0F3FB1E202D4BD4
:101DE0009B6ADB010AD52D4B01220293002328496F
:101DF0001846CDE9003304F0E4FB1F20254B9B6A15
:101E00001C030AD5264B01220293002320491846C1
:101E1000CDE9003304F0D5FB21201E4B9B6A59030A
:101E20000AD5204B01220293002319491846CDE917
:101E3000003304F0C6FB2220164B9B6A9A030AD596
:101E4000194B01220293002311491846CDE90033B2
:101E500004F0B7FB23200F4B9B6ADB030AD5134B1F
:101E60000122029300230A491846CDE9003304F009
:101E7000A8FB2420074A936A6FEA03436FEA1343DF
:101E8000936204B010BD1D20A9E700BF02860000C8
:101E9000C07C000000ED00E01A8600002D860000E6
:101EA00047860000658600008A860000A486000040
:101EB0002DE9F041754B04465F6890B00023C7F3ED
:101EC000080683F31188BFF36F8F02F07F40B0F1F3
:101ED0007F4F0CD102F00C00082819D16C4A18462B
:101EE000CDE901326B490122009304F06AFB002521
:101EF0002C464FF00008F31E8DF81F80092B00F2CE
:101F0000AB80DFE803F00B9FA39CA9A9A9A9A9A70F
:101F1000120746BF0C461D460125EAE75E4B01222B
:101F2000CDE9018300235B491846584FCDF8008066
:101F300004F047FB8DF81F80FE6A16F0020605D0FC
:101F4000564BCDE90183CDF8008006E0FB6A002BFB
:101F50000BDA534B0096CDE90163002301221846AA
:101F60004C4904F02EFB00223BE0FB6A5B00FAD5F3
:101F70004C4B0122CDE9016330463346454900967A
:101F800004F01FFB7B69A26943F480737B61BFF39C
:101F90004F8FBFF36F8F7B6932F8022C23F480736D
:101FA0007B61BFF34F8FBFF36F8F4DF602739A4281
:101FB0000AD0BB6ADBB2002B33D001200DF11F0128
:101FC000FFF7E6FD02460CE0236801220393364B3F
:101FD0003046CDE901632F493346009604F0F1FA0B
:101FE00022689DF81F30CBB908AE04F120073346B4
:101FF00020686168083403C3BC421E46F7D10F9BBA
:10200000002D3DD0C3F3080121B96FEA53236FEAD5
:1020100043230F93104608A9FFF720FD10B0BDE839
:10202000F081BB6A13F47F4F05D001200DF11F0131
:10203000FFF72EFEC6E7BB6AB3F5803F93D3FFF7E9
:10204000B3FEBFE700200DF11F01B9E700200DF13D
:102050001F01EDE7154B74E7154A17F4F87F154B90
:1020600018BF1346103ECDE90336134B01220293ED
:10207000002308491846CDE9003304F0A2FA72E7BC
:1020800023F4FF7323F00103C3E700BF00ED00E07A
:10209000FD860000C07C0000288700003F8700000C
:1020A000608700006E8700008D870000A987000010
:1020B000E4860000CF860000CD870000024A536905
:1020C00043F010035361704700ED00E0EFF3088028
:1020D000EFF3098101B57246FFF7EAFE01BD00BFCB
:1020E000002080F31488BFF36F8F0C4880F30888BA
:1020F00000F018F8202080F3118809484FF400619F
:10210000401880F30988EFF314800221084380F31C
:102110001488BFF36F8F00F0D1F80000E841002071
:10212000E810002072B6002383F313884FF0FF32CB
:10213000134BC3F88020C3F88420C3F88820C3F869
:102140008C20C3F89020C3F89420C3F89820C3F8DB
:102150009C20C3F88021C3F88421C3F88821C3F8E8
:102160008C21C3F89021C3F89421C3F89821C3F8B7
:102170009C2162B6BFF34F8FBFF36F8F704700BFD4
:1021800000E100E0084B9B6883420BD1EFF305832D
:1021900043B1064B5A6842F080525A605A6A22F4A0
:1021A00000425A6205F0E5B92C0B002000ED00E07A
:1021B0006FF00A01084A9368D966084998664B6827
:1021C00043F080534B60002383F31188BFF36F8F7C
:1021D0009368D86E704700BF2C0B002000ED00E024
:1021E000EFF31183202383F31288BFF36F8F4FF037
:1021F0000061084A53699360074A5160596E074A63
:10220000116000219A6E996682F31188BFF36F8F77
:10221000704700BF2C0B002000ED00E0E40A002016
:102220000B498A684FF030001044EFF3098C80E8C6
:10223000F01F74467046FFF7D3FFA64604498A682C
:1022400002F1300090E8F01F8CF30988704700001D
:102250002C0B00201EF0040F0CBFEFF30880EFF3EF
:102260000980816911F8021C0229FFD001B504F030
:102270009DF901BD40B2002807DB01234109034A53
:1022800000F01F00834042F82130704700E100E079
:1022900040B2002801F10101ACBF00F16040064BE3
:1022A0004FEA4111C9B2ABBF00F5614000F00F0029
:1022B00080F800131954704714ED00E008B5094B7D
:1022C000094A23F0604323F07F039360BFF34F8FED
:1022D000BFF36F8F01F048FC02F0FCFB00F048F800
:1022E00001F096FC0000000000ED00E042F8203C08
:1022F000009B0B4942F81C3C019B21F0010142F874
:10230000183C029B42F8081C42F8143C4FF08073C2
:1023100042F8043C0023203A02658366704700BF00
:10232000251300000B4B0E469860416E0A4B154674
:1023300019602C4686F309884FF00000074B984738
:1023400020464FF000014FF000024FF00003044C14
:10235000204700BF2C0B0020E40A0020EB650000A2
:10236000251300001022014B1A61704700ED00E0B8
:10237000002320210348C21801332B2B82F80013BD
:10238000F9D1704700E100E008B5EFF30583064A94
:10239000103B02EBC30152F8330049688847BDE89F
:1023A0000840FFF7E1BB00BF207B000008B5024BEF
:1023B0001B689847002008BDE80A0020034B044A28
:1023C0001860937843F0020393707047E80A002086
:1023D00014000020F0B587B007460E4614460021D1
:1023E000102268461D4605F06BFA02238DF8023074
:1023F000054B2A4621466846CDE90476019302F052
:1024000019FE07B0F0BD00BF1366000008B506490D
:10241000064821F00701C1F1005202F5803203F0B5
:10242000C0FE002008BD00BFEF510020EC0A0020D4
:102430000A4B0020D3F8042142F00102C3F8042122
:10244000D3F8042142F00202C3F80421D3F8042196
:1024500042F00402C3F80421704700BF00E00F40BF
:1024600070B590F8D410036E01295A680446B0F88C
:10247000B83086B004D0022924D0002006B070BD48
:102480001901B0F8D600515802EB03139D8801449E
:10249000B4F8D6602068AE1BB6B2324604F0DDF95F
:1024A000002815DCE9D0104BCDE9046003930F4BF5
:1024B0000122029300230E491846CDE9003304F0AF
:1024C000D6F8DAE7B0F8D630416B058F1944DFE76C
:1024D000B4F8D630184480B28542A4F8D6008CBF38
:1024E00000200120CAE700BFE0870000E987000064
:1024F000B07C000030B50D46044687B000285CD0A3
:10250000036E002B59D01A68002947D12C4B049236
:1025100003932C4B0422029308232846CDE9001391
:102520000B46294904F0A3F8236E5B691BB12946C9
:10253000204662689847D4F8182100233AB1B4F8CD
:102540002021012A9CBFC4F81831A4F81C31C4E929
:1025500013332366A36504F1780004F03AFF04F115
:10256000D80004F01BFF04F1E80004F032FFBFF3D1
:102570005B8F04F1BC0353E8001F21F0010143E825
:102580000012002AF7D1BFF35B8F84F8C05004F12A
:10259000C40007B0BDE8304001F056BC002301295B
:1025A00003920CBF094A0A4A1846CDE9013206498E
:1025B0000222009304F05BF8B6E707B030BD00BF1D
:1025C0000E89000005880000B07C0000168800001D
:1025D00022880000F0B5044687B081B9B0F8B83061
:1025E00001339BB2226EA4F8B8301189994208D108
:1025F0000021204607B0BDE8F040FFF77BBF002375
:10260000F0E70025082605931368214F0493214B1A
:102610000422284620490293CDE900562B46039711
:1026200004F025F8226EB4F8B8305168180101EBB7
:1026300003139A88E2B10B582846CDE90423174BBF
:102640000422CDE9016314492B460397009504F059
:102650000EF8012304F1D800E564A4F85850A4F85A
:10266000D65084F8D43007B0BDE8F04001F048BD42
:102670009A8932B19A68E2649B89A4F8583007B00D
:10268000F0BD204607B0BDE8F04003F0D9BF00BF61
:102690002589000030880000B07C000041880000DF
:1026A0002DE9F0474FF0000904464D464FF0200851
:1026B0003E4F86B0B4F84A201FFA89F39A4218D9DF
:1026C000636C1FFA89F253F822A009F10109504600
:1026D000FEF7B6FA86B2AB197F2B324639DD344BA2
:1026E00002220293002333491846CDE9003303F058
:1026F000BEFF0DB1013DADB200232F4A7B550392C1
:102700002E4A1846029208222A49CDE9003204973F
:10271000042203F0ACFFB4F82031012B32D0022B9D
:1027200022D0002B3FD1D4F818311D692DB120469D
:102730006368B4F84A20616CA847D4F81831597B13
:1027400011F002012FD1204606B0BDE8F047FFF797
:1027500041BF7819514605F0A5F873199BB207F8E7
:10276000038001339DB2A5E7D4F818311D69D5B1B6
:102770002046AC466368B4F84A20616C06B0BDE8F8
:10278000F0476047D4F818311D692DB120466368C1
:10279000B4F84A20616CA8470121204606B0BDE884
:1027A000F047FFF7A7BE06B0BDE8F087620C002037
:1027B00053880000B07C0000AF88000066880000ED
:1027C0002DE9F04FA0F59274A0F58A7105462022FC
:1027D00020688BB004F068F8002840F36F81002770
:1027E000B8462086228EBBB29A4205D828460BB046
:1027F000BDE8F04F01F084BCBBB223441A7C002337
:10280000B4F84010DEB28E4215D3E389A189994213
:1028100018D1AC4B00260293022233463046CDE954
:102820000066A94903F023FFE6816687A4F84A60A1
:10283000C4F8186104E0E06B0133805D8242E1D1AD
:102840000137CFE7B4F84A00B4F84810884201D104
:102850009E4BDFE7A168CA54E389B4F838B05E1C28
:10286000B6B25E450693E681C0F09A80D4F808902F
:10287000A6EB0B0A5A46616B09EB0A0004F0D8FE7E
:10288000002840F08D805E450AD10022A5F59273A4
:10289000DA8125F8EA2C25F8DA2C45F80C2CCFE75C
:1028A000D4F81831002B3CD14FF0140E09F80A303F
:1028B000A5F1CE00C5F1C00C002230F8026F91B234
:1028C0008E4213D801339BB2032BF5D1A3680822A3
:1028D00004937F4B7C4903937E4B02930023CDE905
:1028E00000321846042203F0C2FECEE75CF8101056
:1028F0000EFB021191F804900132B9F1000FDED104
:10290000A4F82031744A636CC4F818111A60636C1F
:10291000A26820465A600223A4F84A30FFF7C0FE9E
:10292000B3E7B4F81E3193B1B4F84A10626CAAEB65
:10293000030A09EB0A0342F82130228FE3899B1A2C
:10294000A268D054B4F84A300133A4F84A30204683
:10295000FFF7A6FEA4F80E80A4F83A80A4F84A80F7
:10296000C4F818816CE7626B0133515CA268324491
:1029700012F8012C8A423FF463AFD9B25945F2D321
:1029800055F80C2CA5F5927362B9C5F1C001A5F1FB
:10299000CE0A09913AF8021F4FF0000E089168E044
:1029A0000023EAE7002092F80CC081B261456AD3A7
:1029B0000021B3F81E2100297ED0B3F84AC0586C1C
:1029C000002A6CD1444A40F82C20B3F84A20013246
:1029D000A3F84A200022A3F81E2131E71420099908
:1029E00051F81A1000FB0E1999F804108E42079145
:1029F0003DD14FF0000C9968DDF81CB01FFA8CF047
:102A0000584522D3A4F82021069AA389023292B213
:102A10009B1A0B441846A4F81C21C4F81891013ADB
:102A200004F040FFB4F84A10626C42F82100A28919
:102A3000A3681344002203F8012CB4F84A30A4F828
:102A40001E210133A4F84A30FAE6D9F8000011F843
:102A50000CB010F80C00834506D099F80DB01BF0AF
:102A6000010F04D03F2802D10CF1010CC4E70EF194
:102A7000010E08981FFA8EF18842AFD8013292B247
:102A8000032A87D1DCE6916811F800E099680130EB
:102A9000314411F8011C714587D1012189E79968FA
:102AA000B21A013A114440F82C10D9899A680A44A4
:102AB000002102F8011C88E701328CE70BB0BDE869
:102AC000F08F00BF6D880000B07C0000848800009B
:102AD000CF88000066880000B482000030B550F84E
:102AE000043C87B040F8083CDA68002540F8182C10
:102AF0001A8A044620F80E2C1B6804220493164BF5
:102B000028460393154B164902930823CDE9005339
:102B10002B4603F0ACFD0121A4F16800FFF75AFD3C
:102B200054F8083CABB198694FF47A7358430930B4
:102B30004FF00A024FF0000345F10001FDF716FFC8
:102B400002460B4604F1100007B0BDE8304001F02A
:102B500045BB07B030BD00BFF68800009888000074
:102B6000B07C000038B50D4604464FF49C7200213D
:102B700004F0A6FE2B6863606B68A3602B89A381B9
:102B8000EB6963642B8CA4F84830EB6863632B7C9F
:102B900023876B69E3632B7EA4F840306B6A63651F
:102BA0002B8D0025A4F85C30BFF35B8F04F1BC03D0
:102BB00053E8002F43E800510029F9D1BFF35B8FA0
:102BC0000122294604F1C40004F044FB04F592708C
:102BD0000E4904F0B7FB04F168000D4904F0B2FBA4
:102BE00004F178000B4904F0E8FB04F1A8000A495D
:102BF00004F0A8FB04F1D800084904F0A3FB04F199
:102C0000E800074904F0D9FB284638BDC127000079
:102C1000DD2A00009F6600008F660000B766000096
:102C2000A7660000024610B5002408461160D48152
:102C300004495487A2F84A40C2F8184103F0E6FD5F
:102C4000204610BD2966000038B50368002B33D03C
:102C50004B683BB30A8912B91A4CA34222D10C8AA1
:102C6000D4B103EB02129A421FD1BFF35B8F00F184
:102C7000BC0252E8003F43F0010442E80045002D49
:102C8000F7D113F00104BFF35B8F18D141666830B0
:102C900001F036FA204638BDCC68002CE1D00A4D50
:102CA000AC42DED06FF01500F5E79C8814B9DC6803
:102CB000002CF7D01033D6E74FF0FF30EBE76FF082
:102CC0000F00E8E7048000000480000038B50446E7
:102CD0000D46E822002104F0F3FD20462B68084948
:102CE00040F8383B04F069FB04F16800054904F042
:102CF00029FB2046294600F0C5F8201D38BD00BF3D
:102D0000556A00004F6A00007FB50BAB0593039333
:102D1000054B0222029300231846CDE90033FEF74B
:102D20001FFC07B05DF804FB528900002DE9F0415B
:102D300007460C4686B083685B6C002B74D09847BE
:102D4000002871DDBB685B6B9BBB94F8E0604FF0C3
:102D5000FF32760106F17808A044404605A903F049
:102D60009DFA0546D8B9454B0222CDE901034449F5
:102D700003460090FFF7C8FF2946404603F0ABFA30
:102D8000A319C3E92055C3E92355DD67C3F888506B
:102D90004FF0FF32404605A903F080FA054620684F
:102DA000059983689B69DBB90021404603F093FADB
:102DB00003E0384698470028C7D1BB685B6A7BBBF5
:102DC000D4F8C820D4F8C0309A4230D154F8680BF7
:102DD00003F04DFE204606B0BDE8F04101F090B989
:102DE0002A469847011EDFDD404603F074FA14229C
:102DF0002644D6F89430F16FB3FBF2F2D6F88C503B
:102E000004F13800491B5B1A9A4204D202220023C3
:102E100001F0E4F9D1E70022002301F013FACCE736
:102E2000384698470028CBD106B0BDE8F08104F1C0
:102E3000B8064FF0FF3205A9304603F080FA02468B
:102E40002068059983685B6923B90021304603F047
:102E500092FAE9E79847051EF7DB2946304603F06A
:102E60008AFABFF35B8FD83454E8003F5B1B44E819
:102E70000032002AF8D1BFF35B8FD5E752890000FA
:102E8000A87C000010B50B690446A3EB9303C0F8BF
:102E9000E4304B688A6883670023C0E92033C0E9C7
:102EA00023335208C0F89420C367C0F888304868BC
:102EB000C4E92833C4E92B331044C4F8B420C4F85F
:102EC0009800C4F89C30C4F8A830D1E90320C4E9C4
:102ED0003033C4F8B820C4E93333C4F8D400C4F89C
:102EE000BC30C4F8C830BFF35B8F04F1D80252E89D
:102EF000001F42E800300028F9D1BFF35B8F206843
:102F000003F0BAFD206803F0B2FD2068836823B1A6
:102F10009B6C13B12246044998472146201D034A61
:102F2000BDE8104003F029BC2D2D00002400002036
:102F300008B5074804F035F938B10648FFF73EFAFE
:102F40000448FEF7E9F9002008BD6FF01200FBE726
:102F5000F07A0000592F00000A2838B50446074DC2
:102F600004D1AB680D2128465B689847AB680348DD
:102F70005B68E1B29847204638BD00BFF07A000098
:102F8000F8B505460E464FF0FF324FF0FF330B48C1
:102F900000F07EFF0A4C0B4FBC4204D3BDE8F84062
:102FA000064800F051BF23680BB1AB4203D1314654
:102FB0002846636898470834EEE700BF9400002075
:102FC000E07C0000F07C00002DE9F04105460E4653
:102FD00017464FF0FF324FF0FF330C4800F058FF18
:102FE0000B4CDFF83080444504D3BDE8F04107487E
:102FF00000F02ABF23680BB1AB4204D13A463146F8
:103000002846636898470834EDE700BF9400002025
:10301000F07C0000F87C00007FB50BAB05930393B8
:10302000064B029300231A4619461846CDE9003391
:10303000FEF796FA07B05DF804FB00BF8089000038
:10304000F0B54FF47A760C4651681388B1FBF6F56B
:1030500006FB1511167A527A032E96BF0C4F0D4EB1
:1030600057F82660062A96BF0B4F0A4A57F82220C7
:1030700085B0CDE90262CDE90051084A214601F050
:103080009DFE8442B4BF6FF00B00002005B0F0BD80
:1030900020800000898900000480000091890000E0
:1030A00010B5937986B0049353790C460393137942
:1030B000029353880193537800931378044A01F0E4
:1030C0007DFE8442B4BF6FF00B00002006B010BD3F
:1030D0005A8A00002DE9F041244D01F120020646F4
:1030E0000F4628464FF4806186B0FFF7A9FF0028FD
:1030F00038DB002404953368DFF8748022462146CB
:1031000020460393CDE900442346CDF80880FFF71D
:1031100083FF3A464FF480612846FDF769FEA042DE
:1031200020DB04953368224621462046CDE9028300
:10313000CDE900442346FFF76FFF4FF48061284636
:1031400007F12C02FFF7ACFFA0420BDB04953368BC
:103150002246CDE90283214623462046CDE900449C
:10316000FFF75AFF06B0BDE8F08100BFE20C002077
:1031700080890000F0B595790E46102D13785178AE
:103180009778B2F804C087B02FD01FD8013DECB2B9
:10319000072C2CD8072D2AD8DFE805F0042B29238B
:1031A00029292925164CD279009102F00102CDE996
:1031B00003423146CDE9017C124A01F0FFFD86420F
:1031C000B4BF6FF00B00002007B0F0BD402D12D04F
:1031D000802D12D00C4CDFF834E0202D18BF74463F
:1031E000E1E70B4CDFE70B4CDDE70B4CDBE7074C73
:1031F000D9E70A4CD7E70A4CD5E70A4CD3E700BF1A
:10320000B78A0000E78A0000CF8A000089890000A1
:10321000BB8A0000C38A0000CA8A0000DF8A00005F
:10322000D58A0000DA8A00002DE9F04106460C46F6
:10323000104FDFF8448086B001EBC205AC4202D1EA
:1032400006B0BDE8F08122464FF480610948FFF7DF
:1032500091FF002804F10804F2DB04973368CDE9FC
:10326000028300231A4619461846CDE90033FFF7BA
:10327000D3FEE3E7E20C0020808900002DE9F84F3F
:103280000746884600235DB27A5D0ABB4FF0FF35E2
:1032900000214FF00A0A0C460E4697F80090013BB9
:1032A000A9F12D02D2F1000E2B485BB24EEB020EBB
:1032B0005AB2724512DA002D2CDAB9F12D0F02D173
:1032C000644266EB46060020C8E90046BDE8F88F78
:1032D0002E2A03F10101DBD00B46D4E7FA5C013B57
:1032E000303A5FFA82FCBCF1090F32D802FB01FCD4
:1032F0004FEAE27B00FB0BCCA2FB00B294440AFB3A
:1033000001F2A0FB0A011BEB040B5C464CEB06062A
:103310001144CDE70021013510486DB27B5D002BD3
:10332000CBD0303BDAB2092A13D803FB01F24FEAC3
:10333000E37C00FB0C22A3FB003C1B19624442EB24
:1033400006061C460A2200230135FDF7BFFA6DB2BE
:10335000E4E76FF01500B9E700CA9A3B00E1F50514
:1033600010B50C46FFF78AFF002808DBD4E90001FE
:103370000023034AFDF7AAFAC4E90001002010BDAA
:1033800040420F002DE9F04707468A4600244FFAD5
:1033900084F917F8093013B96FF015004FE02E2BA0
:1033A00004F1010201D01446F1E7B9F1000FF3DD99
:1033B000B9F1010F05D007EB090313F8023C352BD7
:1033C000EAD800210D468846E4B2661C294876B248
:1033D000BB5DB3BB03210A26013C274ADFF89CC032
:1033E00064B2A9EB0403032B3B5D08BF6246A3F163
:1033F0003003D8B208BFE8210928CDD803FB01F07B
:103400004FEAE37E02FB0E00A3FB023E5B191D4662
:1034100006FB01F3A2FB062104F1FF34704464B201
:1034200040EB08081944631CDBD14FF47A72002387
:1034300028464146FDF79AFACAE900010020BDE896
:10344000F087303BDAB2092AA6D803FB01F24FEA33
:10345000E37C00FB0C22A3FB003C5B19624442EBC3
:1034600008081D460A2200230136FDF77FFA76B2CE
:10347000AEE700BFAA505763AA2669E10010A5D4A1
:1034800010B50C46FFF7FAFE002808DBD4E900016E
:103490000023034AFDF71AFAC4E90001002010BD19
:1034A00035A91D007FB500241E4B06461B880D461E
:1034B000ADF800308DF80240FDF7C2FB052803D8B7
:1034C0006FF0150004B070BD33880A21684601AA68
:1034D000ADF8003003F082FB0028F1DB019B172BD5
:1034E000EED82B7073880A21684601AAADF8003027
:1034F00003F074FB0028E3DB019B3B2BE0D86B70EF
:1035000002A9301DFFF72CFF0028D9DB4EF6602200
:10351000029B9342039A72F10002D1D220466B8043
:10352000D0E700BF007D000073B500241E4B0646A7
:103530001B880D46ADF800308DF80240FDF780FB8A
:10354000062803D06FF0150002B070BD33880A2141
:10355000684601AAADF8003003F040FB0028F1DB1B
:10356000019B5A1E1E2AEDD82B7173880A216846CA
:1035700001AAADF8003003F031FB0028E2DB019B2B
:103580005A1E0B2ADED86B71B3880A21684601AA3D
:10359000ADF8003003F022FB0028D3DB019B632B46
:1035A000D0D82046AB71CFE7007D0000092973B564
:1035B0000546144603D86FF0150002B070BD83684D
:1035C0001B78562B58D0412BF5D102F12C063146F1
:1035D0004068FFF767FF0028EDDB2B691B784E2B57
:1035E00001D0532BE7D1AB691B78452B01D0572B6A
:1035F000E1D12146E868FFF7C5FE0028DBDB6869FA
:1036000004F10801FFF7BEFE0028D4DBD4E9003244
:10361000296909784E2902D05B4262EB4202C4E973
:103620000032D4E90232A9690978452902D05B4207
:1036300062EB4202C4E902326946E869FFF720FF03
:103640000028B8DBDDE90032002AB4DC636169469A
:10365000286AFFF785FE0028ADDB084A009B019928
:103660009A424FF000028A41A5D323613146686A2D
:10367000FFF75AFF00289EDB00209EE73F7E0500F3
:1036800030B5044600698DB000F158030293182349
:1036900001A90194ADF80C3003F083FC00283DDB58
:1036A000636825691B6801A9019305F502730293FC
:1036B0004FF44073039305F5A1630493402305F58C
:1036C00090700593FFF702FBC5F8180120690025EB
:1036D00000F5D06302934FF48073ADF80C30104BBB
:1036E0000190049302238DF8143000F5F0630893E1
:1036F0002023ADF824300B4B01A90A93032300F5D6
:10370000A960ADF82C3006958DF81C50FFF72AFA09
:103710000028A1BF0122284663691A710DB030BD8F
:10372000840000204C8000002DE9F0411A4A044634
:1037300013784168002B28D000250B6808461E6BC3
:103740001570D3F824809F6A03F0F4FC01220B6803
:103750009D620B685A6240F601120B68DD620B68CD
:103760001A630B681D600A6893691B07FCD46068C4
:1037700003F0E0FC60220B68C3F824800B689F62B2
:1037800063681B68DA620B681E630A68936B43F018
:1037900020039363BDE8F081860000204FF0E02312
:1037A00010B50F499C691A6908689B690D4902F4B4
:1037B000803234B993B903464AB90A681044C01A32
:1037C00010BD002B08BF03460AB9A342F5D90A6809
:1037D00002440A604FF0E0221269EEE70446F3E784
:1037E000280B00201C0B002020220020084B83F80F
:1037F0002320084B084A1A60084B013A18604FF022
:10380000E0235A6198611A6942F007021A61704711
:1038100000ED00E0280B0020C0D401001C0B0020AC
:1038200008B5FFF7BBFF0B4B0B4A1868116808443B
:10383000106000221A60094A09491368C01AB0FBD7
:10384000F1F001FB0033136001F01EFABDE80840FF
:10385000FEF78AB91C0B0020240B0020200B00204F
:10386000C0D401002DE9F041314E91B1421C0AD182
:103870004FF0E022136923F0010313614FF07F43FF
:103880003360BDE8F0813468012806DC4FF00008A1
:1038900008E0431C3468F7D18A208B28A8BF8B200E
:1038A00000F1FF38EFF31185202383F31288BFF373
:1038B0006F8FFFF773FF4FF0E0230022DFF874C033
:1038C0009F69DCF8003018441B4B1A601B4B1A68C8
:1038D000831A29D4DFF868E00EFB083303F5EA33D6
:1038E000BF33B3FBFEF1131A41F64C520EFB01330A
:1038F000934238BF1346134A934228BF13464FF0F2
:10390000E0223360013B9169536100238F42A7EBB2
:10391000010738BF3F1938449361CCF8000085F3A4
:103920001188BFF36F8FACE741F64C53E7E700BF58
:10393000280B0020240B00201C0B0020200B002053
:10394000C0D4010080AFFC0038B5EFF3118520230F
:1039500083F31288BFF36F8F074B1C68074B1B68FC
:10396000E41AFFF71BFF85F31188BFF36F8F044B39
:103970002044B0FBF3F038BD240B0020200B0020C6
:10398000C0D401001FB50446FDF776FD064B0122A9
:103990000293002305491846CDE9003303F00CFCDF
:1039A000204603F019FC00BF1F8C0000C07C000003
:1039B0002DE9F041054686B00E46EFF3118820232D
:1039C00083F31288BFF36F8F0024042898BF234B22
:1039D000234A98BF53F82030976888BF214B127C48
:1039E0002149CDE90432214B039002930122234661
:1039F0002046CDE9004403F0DFFB6EB1F369C3F369
:103A000008034BB11A4B0122CDE90143204623465E
:103A10001549009403F0D0FB2FB1384603F0F9FCB0
:103A200008B1037803B91348134B01220293002312
:103A3000CDE90370CDE9003318460B4903F0BCFB18
:103A400031462846FFF79EFF88F31188BFF36F8F3A
:103A5000384606B0BDE8F041FEF794BBEC800000AC
:103A60002C0B00202E8C0000C07C00003C8C000041
:103A7000648C000089890000858C000038B5094BF2
:103A800053F82040013053F82050A54200D838BDEB
:103A9000636823B1204603F0A7FB0834F5E72368E9
:103AA0009847FAE700810000012270B5294B0320F6
:103AB00086B01A70FFF7E2FFFDF7C2FF0420FFF7A0
:103AC000DDFF254C254D2646AE4204F1300410D3CF
:103AD00000F080FE204C224EAC4226D300F08EFE39
:103AE000FDF726FA1F4A137B23F00103137306B078
:103AF00070BD54F80C3C059354F8103C049354F8F2
:103B0000143C039354F8183C029354F81C3C019362
:103B100054F8203C009354E90A2354E90C0100F0C6
:103B2000D9FB54F8303C5E65CDE7D4E90A23B3F104
:103B3000FF3F08BFB2F1FF3F05D052EA0301206802
:103B400003D103F068FC3034C6E73146183001F089
:103B500021F8F8E7E2100020787C0000787C000073
:103B6000237500001809002008B50348034A002106
:103B7000121A03F051FB08BDA8000020E410002039
:103B8000034618B10648074A904202D36FF001007D
:103B900070474168994201D103F026BB0830F3E732
:103BA000C07A0000C07A0000702370B5134E012265
:103BB00003FB0066002386B0CDE904230F220193A6
:103BC000CDE9023214230E4D0E4903FB0055044685
:103BD00001EB00214FF4807230460B4B009500F052
:103BE00079FB737B2C7423F004037373074B01344C
:103BF00003EBC423EE606B6006B070BDA808002024
:103C00002C0B0020E818002021720000E810002092
:103C1000BFB50020FFF732FF294B83F30888294CFA
:103C200000256369284E43F400736361E02384F840
:103C30002230E57725766576A57684F82050636A8C
:103C4000224F43F4E0236362FEF738FAFEF78AFB63
:103C50004FF0FF33A362E362FDF7FAFB40F201127B
:103C60001B4B1C4C9A81B3601D6603F099FA01202E
:103C7000FFF704FF0220FFF701FF00F0DFFD164B06
:103C800074610593012315494FF42052CDE9035384
:103C900020463B46CDE90155009500F01BFB06464A
:103CA000627B204622F00402627303F0F0FB284698
:103CB000FFF77AFF3A4631462046FEF733FB00BF56
:103CC000E818002000ED00E02C0B0020A93A0000CD
:103CD0008809002018090020EC820000E819002063
:103CE0002DE9F341044617461E46EFF311882023C1
:103CF00083F31288BFF36F8FC368334A7BB1806848
:103D00009168884219D057EA060318D188F31188C0
:103D1000BFF36F8F6FF00F0002B0BDE8F0819168C4
:103D200091F90E100133E36093682161A36088F379
:103D30001188BFF36F8F0020EEE72169F2E791F958
:103D40000E1090F90E306FF07E029942A8BF19460E
:103D50009142B8BF11468B422DDD03F06CFA054647
:103D600022464146CDE90076184800F06BFC002859
:103D7000E1D0EFF31186202383F31288BFF36F8F16
:103D8000A068D0B1236821699C420AD04BB193F955
:103D90000E309942A8BF19466FF07E039942B8BF12
:103DA000194603F048FA40B13146084800F0CEFC0D
:103DB0006FF00A00B0E70025D2E7002DF4D186F3BA
:103DC0001188BFF36F8FF3E72C0B0020E310002066
:103DD00038B58368044663B3194A926893422BD17D
:103DE000C368012B03D9013BC360002038BDEFF34A
:103DF0001185202383F31288BFF36F8F01698068D8
:103E000003F019FA204603F090FBA06058B190F936
:103E10000E2022610022C26603F039FB29460948C0
:103E200000F094FCE1E7E06085F31188BFF36F8F49
:103E3000DBE76FF01500D9E74FF0FF30D6E700BFA2
:103E40002C0B0020E310002038B50446EFF3118559
:103E5000202383F31288BFF36F8F03F066FB48B112
:103E60000022C26603F013FB2946BDE8384007482C
:103E700000F06CBCD4E902329A4218BF0133A3604F
:103E800085F31188BFF36F8F38BD00BFE3100020AA
:103E900013B5EFF31181202484F31288BFF36F8FE1
:103EA000846844B1013C846081F31188BFF36F8F53
:103EB000002002B010BD52EA030406D181F311883C
:103EC000BFF36F8F6FF00F00F3E7CDE900230246D9
:103ED000014800F0B7FBECE7E310002070B50446A2
:103EE000EFF31185202383F31288BFF36F8F6FF0F8
:103EF0000A06204603F019FB18B1C66603F0C7FA9C
:103F0000F7E7A0602946BDE87040014800F01EBCFC
:103F1000E31000202DE9F04305464FF0FF364FF047
:103F2000FF37DFF8248185B0EFF31189202383F375
:103F30001288BFF36F8F2C6F8CB9022105F18800B6
:103F400003F094F900285DD100234946CDE90067CC
:103F5000029305F178023D4800F024FDE4E76A6F22
:103F6000236894422B6708BF6B67D5F8883043F00D
:103F70000203C5F88830E36823F0040343F001032B
:103F8000E360636889F31188BFF36F8F2046984719
:103F9000EFF31189202383F31288BFF36F8FE36857
:103FA000D90623F0010237D4E260E3689A071AD5F4
:103FB000D8F8000023F00203E360A0B100210268FA
:103FC00088B143689C4237D1036869BBD8F80420A4
:103FD000C8F80030824201D1C8F80430002340F80C
:103FE000083BFFF731FFD5F8883023F00203C5F80E
:103FF000883089F31188BFF36F8FDB0594D400F00C
:1040000023FC91E705F1800400220121204603F002
:10401000D2FA0028F8D197E723F01103E36004F106
:104020001000FFF711FFC0E70B60D8F8043083429F
:1040300008BFC8F80410D1E722B113680146104642
:104040001A46BDE71346F9E7480C0020E3100020AC
:10405000F8B5C36804469A070F46C3F340062CD44C
:104060005B071AD40B680BB983680B60E368DD0744
:1040700042BFA36802263B603D6858BF0126002D61
:1040800038D01E4B9B68AB420AD0D5F88830D80791
:10409000C3F3800214D46FF0120600233B6024E0C7
:1040A00003F0AEF9D5F888300028F0D1D907C3F372
:1040B000C002F0D552B15B0708D46FF00F06ECE7F1
:1040C000002AFAD1C3F3C003002BF6D100232360EA
:1040D0006B6F63B9C5E91C44284603F0E1F8E36857
:1040E00043F00403E3603B68A3603046F8BD1C6006
:1040F0006C67F1E76FF01506CFE700BF2C0B0020CF
:104100000146014803F03AB9180A0020F0B5044608
:10411000002089B0C4E91C000E9D04F17800C4E9B8
:104120001E0004F18000C4E920004DB32879002866
:1041300040F2011008BF0120C4F8880000204FF0B1
:10414000FF364FF0FF37CDE90330CDE90100CDE96F
:10415000066720460B4B009400F0F4F855B129682F
:1041600011B1204603F052F96B791BB1237B43F068
:1041700001032373204609B0BDE8F04003F04BB9BA
:104180000120D9E7153F000037B501900846EFF34D
:104190001184202181F31288BFF36F8FC16811F061
:1041A0001E0F16D153EA020508D101A9FFF750FFEF
:1041B00084F31188BFF36F8F03B030BD41F0080165
:1041C000C160019910308161034900F0E3FC0120D6
:1041D000EEE70020ECE700BF09730000014601484C
:1041E000FFF7D2BF180A0020F7B50C4616461D4649
:1041F0000190EFF31187202383F31288BFF36F8FB1
:10420000084603F03EF855EA060309D1204601A905
:10421000FFF71EFF87F31188BFF36F8F03B0F0BD68
:10422000E36804F1100043F00803E360019B3246A9
:10423000A36203492B4600F0ADFC0120EAE700BF72
:104240000973000001460148FFF7CEBF180A00209D
:1042500010B5EFF31184202383F31288BFF36F8F1F
:1042600003F063F948B10022C26603F010F9214659
:10427000044800F06BFA002010BD84F31188BFF3EE
:104280006F8FF8E7E31000202DE9F34105460C4657
:1042900017461E46EFF31188202383F31288BFF3DD
:1042A0006F8F0846FFF794FD2A464146CDE9007618
:1042B000074800F0C7F905464FF0FF324FF0FF33D3
:1042C0002046FFF70DFD284602B0BDE8F08100BF93
:1042D000E31000202DE9FF41984600F15803C0E9A2
:1042E00016330E9B002603730423D51D437325F05C
:1042F00007050D9B0D440F4683732946C0E90666EA
:104300008660C6730446FDF70FFC0C9B07300293D2
:104310000B9B20F0070001930A9B2D1A00932A465D
:10432000434639462046FDF7E1FF054B66659B682D
:1043300003B11B6E2846236604B0BDE8F08100BFC0
:104340002C0B0020F0B5002587B00595109DDDE908
:10435000127604950F9D044603950E9D02950D9DC2
:1043600001950C9D0095FFF7B5FFB6F1FF3F08BF23
:10437000B7F1FF3F05D056EA070305D1204600F00C
:10438000F7F9204607B0F0BD3A463346024904F13A
:10439000180000F0FFFBF4E72375000038B5124D5C
:1043A000D5F8183163B193FAA3F3B3FA83F305EBAD
:1043B000C3029469033305EBC3039C4200D004B9E4
:1043C000EC68AB6838B95A7BD20604D1A26912B93D
:1043D000DA897F2A05D89C4202D0204600F022FBD1
:1043E00023466B6138BD00BF2C0B002038B590F917
:1043F0000D200446002A437B134D1CDA817B03F019
:104400007F0310314373C9B203F007F805EBC10213
:104410009269CB1C05EBC3039A420CD101224B09D4
:10442000403305EB830301F01F0102FA01F19A69A1
:1044300022EA01029A61A868031B58425841BDE86C
:104440003840FFF7ABBF00BF2C0B002070B490F9D1
:104450000D1003460029427B22DBD10620D1806962
:10446000F0B962F07F025A739A7B0E491032D2B2D1
:1044700001EBC205EE69D41C01EBC404C3E900469C
:104480003360EB615309403301EB8301012302F0F8
:104490001F0293408A6913438B6170BCFFF77EBF94
:1044A00070BC70472C0B0020002A2DE9F0410E460D
:1044B0000CBF10210821427B044611420FD141EA72
:1044C0000203D20918D14373082933D00120FFF722
:1044D00065FFBFF35F8F637B23F060036373314B32
:1044E0009B68A34257D1EFF30583002B53D130468D
:1044F000BDE8F041FDF75CBE857B03F07F034373AD
:1045000002F08BFF1035274BEDB203EBC50080693D
:10451000EA1C03EBC2029042D6D101206A09403264
:1045200003EB82039A6905F01F05A84022EA000206
:104530009A61C9E7A36813B1204602F076FF04F13F
:10454000180003F05AF84FF0000804F15807A56D61
:10455000BD4200D095B9134DAB689C42B6D1EFF384
:104560000583002BB2D00120FFF718FF40F20112A3
:104570000D4B9A810022AB601A66AAE7284602F02A
:1045800054FF05F1180003F038F82846C5F86C8090
:10459000FFF75CFFDBE786F31188BFF36F8FBDE8A1
:1045A000F08100BF2C0B00208809002038B590F95D
:1045B0000D200146002A437B90F90E40204D1ADA67
:1045C00003F07F031034E4B2437302F026FF05EBDF
:1045D000C4029269E31C05EBC3039A420BD101208C
:1045E0006309403305EB83039A6904F01F04A0407C
:1045F00022EA00029A614B7B63F07F034B738B7B53
:104600001033DBB205EBC300C469DA1C05EBC20250
:10461000C1E900242160C16101205A09403205EB43
:10462000820203F01F0300FA03F390690343A868B2
:104630009361431A58425841BDE83840FFF7AEBE77
:104640002C0B0020F8B5124B0C46DDE9067611461E
:104650009868104A1060EFF31182202282F31288CA
:10466000BFF36F8F9D68284602F0E9FEB6F1FF3F69
:1046700008BFB7F1FF3F06D03A463346064905F179
:10468000180000F087FA2046BDE8F840FDF790BD1D
:104690002C0B0020500C00202375000070B5044640
:1046A000EFF31185202383F31288BFF36F8F437BD1
:1046B000DA0634D1826992BB867B03F07F034373B1
:1046C00002F0ABFE1036204BF6B203EBC600806959
:1046D000F21C03EBC202904228D0627BA17310311E
:1046E000C9B262F07F02627303EBC100C669CA1CE3
:1046F00003EBC202C4E900263460C46101244A0904
:10470000403203EB82039A6901F01F0104FA01F1C0
:10471000204611439961FFF741FE204601E0002049
:10472000A17385F31188BFF36F8F70BD01207209EB
:10473000403203EB820206F01F0600FA06F690698B
:1047400020EA06009061C8E72C0B002049B9EFF37E
:10475000058030B9054B5A699B689A4201D0FDF734
:1047600027BD81F31188BFF36F8F70472C0B00209A
:1047700010B5EFF31184202282F31288BFF36F8FFC
:10478000427B510704D484F31188BFF36F8F10BDAF
:1047900022F004024273FFF759FE2146BDE81040A3
:1047A0000148FFF7D3BF00BFE3100020034648B91C
:1047B000EFF3058232B9064A51699268914201D0FD
:1047C000FDF7F6BC83F31188BFF36F8F704700BF0E
:1047D0002C0B0020EFF31181202383F31288BFF309
:1047E0006F8F054B9A68D37B013BD37381F311889C
:1047F000BFF36F8F704700BF2C0B002038B5EFF36D
:104800001185202484F31288BFF36F8F0A4B002098
:104810009A68D37B0133D373FFF7C0FD85F311880A
:10482000BFF36F8FEFF3118084F31288BFF36F8FA4
:10483000BDE83840FFF7BABF2C0B0020014802F05A
:104840008FBE00BF400B002070B5EFF31184202312
:1048500083F31288BFF36F8F21498868437B857B80
:1048600003F07F0310354373EDB202F0D6FD01EB88
:10487000C5029269EB1C01EBC3039A420BD10120E4
:104880006B09403301EB83039A6905F01F05A840CB
:1048900022EA00029A618A68537B63F07F035373B4
:1048A000937B1033DBB201EBC305EE69D81C01EB3F
:1048B000C000C2E9000601203260EA615A094032B4
:1048C00001EB82018A6903F01F0300FA03F313432B
:1048D0008B61FFF763FD2046BDE87040FDF768BCC3
:1048E0002C0B002050EA01032DE9F04105460E464D
:1048F00003D1FFF7A9FF00202BE0831C71F1FF33E8
:1049000029DB02F08FFE2C18EFF31188202383F3AC
:104910001288BFF36F8F124F124BB8681860FFF701
:1049200065FDB86810492A463346183000F032F960
:10493000BA684046537B43F010035373FDF738FCCD
:1049400002F070FE201A63EB0303012873F10003E9
:10495000D1DBBDE8F0816FF00104241AD4E700BF79
:104960002C0B0020500C002023750000B1F1FF3FFC
:1049700008BFB0F1FF3F08B506D1064B986802F0BA
:1049800095FD4FF0FF3008BDFFF7ACFF0A235843F9
:10499000F9E700BF2C0B0020014B9868704700BF5F
:1049A0002C0B0020D3B5DDE90667089CCDE9006734
:1049B000FFF748FE1CB1034B9B685B69236002B0A4
:1049C000D0BD00BF2C0B00200122044BC01A044BA9
:1049D000C0105843034B1A54704700BFF809002019
:1049E000ABAAAAAAE3100020C3897F2B12D80A4BD6
:1049F0001B6863B1094B90F90E201B689A4209DBD2
:104A0000437BDB0606D1064BC31A18BF012303F014
:104A1000010070470023FAE7580C0020540C0020D6
:104A2000A808002070B50E4B0E4C1E7C182303FB0B
:104A300006440546204602F0E0FD00220A4B2846C7
:104A40009A55FFF7D1FF48B1084B2046BDE87040AA
:104A50001A680749013AD31700F09CB870BD00BF2F
:104A60002C0B0020F8090020E3100020580C002037
:104A7000C949000038B5EFF31185202383F312886C
:104A8000BFF36F8F104B114A9C681068A04206D18B
:104A9000FFF7C8FF85F31188BFF36F8F38BD002182
:104AA0001B7C11600A4AD35C002BF3D02046FFF731
:104AB0009BFF0028EED0637BDB0602D12046FFF788
:104AC00075FD2046E4E700BF2C0B0020500C0020B1
:104AD000E310002008B50648064A0749121A02F0FA
:104AE0009DFBBDE80840054A0549064802F096BB13
:104AF00000000020A4000020008D00000000000045
:104B0000008D000000000020034B1B680BB9FEF76E
:104B10001BBF0020704700BF5C0C002030B570B197
:104B20000B4B5B6898420AD0036843B1D3E9042178
:104B3000D0E90445121941EB0501C3E90421D0E98C
:104B4000003213605A600023C0E9003330BD00BF5B
:104B50007C00002010B50E4B1C689C4204D1FFF76E
:104B6000D3FF6FF0004010BDFFF7CEFF002CF8D050
:104B7000D4E904321B1A62EBE072B3F1004F72F118
:104B80000001EEDA002AACBF18460020EBE700BFB8
:104B90007C000020B3F1FF3F08BFB2F1FF3FF8B542
:104BA00004461D4616465ED08160EFF31187202330
:104BB00083F31288BFF36F8F013275F1FF3324DA6C
:104BC0006FF001032D49D1E900209B1A4FF0FF320D
:104BD00062EB00009E1B60EB0500012E70F10003EC
:104BE00001DA01260020C4E90460254ED6F800C091
:104BF0007568B44508BF4FF0000CBCF1000F0DD133
:104C0000C4E900652C6074601CE0FFF77DFF01368D
:104C100045F10005361845EBE070E4E7DCE90420D7
:104C2000D4E90431934271EB000E1DDAD21ADCF89C
:104C3000043060EB0100CCE90420C4E900C31C602F
:104C4000CCF804403368B34209D09C4207D10D4BE5
:104C50001C6824B9FFF77EFF2146FEF703FE87F3A9
:104C60001188BFF36F8FF8BD9B1A61EB0001AC4553
:104C7000C4E90431C4D0DCF800C0BEE7100A00204B
:104C80007C0000205C0C00202DE9F84FEFF3118C24
:104C9000202383F31288BFF36F8FDFF8B0A0DFF813
:104CA000B0900024C9F80000DAF800000025504553
:104CB00008BF0020274FE046D7E90021D9F800308F
:104CC00078B3D0E9046C4FEAE37EB3427EEB0C0B81
:104CD00005DAF61A6CEB0E04C0E9046421E0B218A0
:104CE00041EBE671C0E90445C7E90021FFF716FF73
:104CF00088F31188BFF36F8F83689847EFF31188AB
:104D0000202383F31288BFF36F8FD9F80030DAF8CD
:104D100000009B1B5045C446C9F80030CBD1D7E9F1
:104D2000002100249A1841EBE373C7E90023C9F876
:104D30000040FFF70FFF2146FEF794FD88F311882E
:104D4000BFF36F8FBDE8F84FFFF794BE7C000020E3
:104D50005C0C0020100A002010B5EFF31184202312
:104D600083F31288BFF36F8FFFF7CEFE0346054A29
:104D7000D2E90001181841EBE37184F31188BFF305
:104D80006F8F10BD100A00201FB5094A02AB92E8D0
:104D900003004FF4805283E80300009305494FF06D
:104DA000FF330548FFF7B2F9002005B05DF804FBBA
:104DB000F87C0000E8410020180A00200CB430B54F
:104DC00089B005460C461C22002101A802F078FD9E
:104DD00002238DF806300E4B0595029323462CB125
:104DE000B4F1004F28BF4FF00043013B1D440DAA12
:104DF0000C9901A80695009200F01CF914B100224C
:104E0000059B1A7009B0BDE8304002B0704700BF82
:104E10004D7A0000242A2DE9F041044601D8012AE8
:104E20004CD102F01BFE1622344B1A5001B10C601B
:104E300000273846BDE8F08135462E4616F8010BAE
:104E40002028F9D0A0F10907042F0346F4D92B2814
:104E500036D02D2837D14FF0010C6B78AE1C302B9B
:104E600038D1307840F0200078282FD132F010006F
:104E70002CD110223446737802360CF100400138F0
:104E8000B0FBF2FE002702FB1E08392B82BF03F1A4
:104E9000FF3343F02003263B303B9A421ED977452F
:104EA00002DC03D1984501D24CF0020C354607FBD9
:104EB000023715F8013B34462E46E6E70546BCE7C7
:104EC0004FF0000CC9E74FF0000CC8E7002A08BFFC
:104ED0000822D2E7002A08BF0A22CEE701B10C60FF
:104EE0001CF0010F18BF7F421CF0020FA1D0074633
:104EF000222202F0B3FD014B1A509AE70C00000089
:104F00002DE9F04101260746B24201DCBDE8F081FF
:104F10003B461F4613F8014B002CF7D0252CF8D147
:104F20001C780237252CF3D000239C461D46DFF861
:104F300000811F2D18D8A4F1200EBEF1100F09D941
:104F4000A4F1300EBEF1090F1ED80A24202504FB5F
:104F500003E304E028FA0EFE1EF0010F06D017F856
:104F6000014B002CE5D128E07F2D1CD8A4F1300E98
:104F7000BEF1090FE9D9242C10D1BCF1000F46D0A5
:104F8000B34246D00023EAE724F0040EBEF12A0F14
:104F9000F8D06C2C09D145F08005E0E724F0040E30
:104FA000BEF12A0FEED06C2C22D06C2C1BD8682CB2
:104FB00023D06A2C28D04C2C26D0BCF1000FA5D0D1
:104FC000B445A1D144F02007A7F1650CBCF1020F54
:104FD0000B6801D9612F1ED1073323F00703083373
:104FE0000B6001368FE7742CB9D07A2CB7D0E4E788
:104FF0002C0648BF45F40075CDE7EC0548BF45F4E5
:10500000007545F48075AAE745F42075A7E79C462E
:10501000B8E76324D6E7692C02D007D8632C03D005
:105020002F0601D5AC05D7D40433D9E7732CF6E7A6
:10503000892801002DE9F04F436895B003938378E8
:1050400080469807CDE9081217D50B4600250D922A
:105050001F78A7B1252F16D0013307934146384654
:10506000039B9847002805F1010580F2558498F8C4
:10507000023043F0040388F802304FF0FF35284631
:1050800015B0BDE8F08F5F789A1C252F0792E5D008
:1050900000242646A246A346BBF11F0F32D8A7F133
:1050A0002003102B0AD8DFE803F02409092A090994
:1050B000091B09090922092709091900A7F1300369
:1050C000092B2DD92A2F39D154B90D9B1BF0400F34
:1050D00053F8042B0D9329D0164601E04BF0010B39
:1050E000079B13F8017B0793002FD5D15BE04BF0B2
:1050F000020B4BF0040BF3E74BF0080BF0E74BF01F
:10510000100BEDE7BBF17F0F3FD8A7F13003092B60
:10511000D8D81BF0400F03D00A2202FB0636DFE787
:105120000A2202FB0A3A4BF0200BD9E7B2F1000A3F
:10513000F9DACAF1000A4BF0280BD1E72E2F05D17E
:105140001BF0400F9BD14BF0400BC9E7242F1CD123
:10515000002C00F04481099B1BF0400F0D930AD1F5
:10516000524608980DA9FFF7CBFE0D9B1A1DD3F8E8
:1051700000A00D92B4E7324608980DA9FFF7C0FED3
:105180000D9B1A1D1E680D92AAE76C2F00F014816A
:1051900000F20B81682F00F017816A2F00F01C814C
:1051A0004C2F00F0198134B1099B224608980DA9B3
:1051B0000D93FFF7A5FE002E47F02003B8BF2BF09C
:1051C000400B0593A3F16503BCBF00261FFA8BFBC0
:1051D000022B40F2098147F02003612B40F08482CA
:1051E000FF4307F0200306930D9B1BF0400F03F1D4
:1051F000070323F0070303F10802D3E90001069B2C
:105200000D9200930EAA14BF33464FF0FF3302F005
:105210005FFB431CDBB24BF4C0540493702306467F
:10522000A3460127DDF83890059309F10903122BF5
:105230000CD909F16303C62B40F2118140F2CE7202
:1052400009F2E733934294BF032704279DF83C20DB
:1052500002F00C0312F0010240F01C811BF0020F5F
:1052600040F015811BF0040400F0FB80002B40F09F
:10527000148120231BF4405F21D1002E08BF01269A
:10528000049A50326A44133A049921B112F8011D6C
:10529000302900F039811BF0100F049A18BF3246F4
:1052A00019F1040FC0F23581B14580F232814A45CF
:1052B0004BF4005B40F32F8109F10106961B1BF4B0
:1052C00000520A9200F0298129EAE974013403B1FD
:1052D0000134002E00F02881721C1444A245D4BF72
:1052E0000024AAEB04041BF0090F04D12C44A542AE
:1052F00040F01F81002443B118464146039B984764
:10530000002805F10105FFF6B2AE1BF4006F13D0C3
:1053100041463020039B98470028FFF6A8AE069B25
:105320004146C3F1780000F0F800039B984700283D
:1053300005F10205FFF69BAE1BF0080F05D12C44CA
:10534000AC4240F00281254600240A9B002B00F06D
:105350002C8129EAE97AA9EB0A027642049B0AF138
:10536000FF3A934285BF0EABD3183020587956458B
:10537000059205F1010700F3F2804146039B98472F
:10538000059A002802F10102FFF671AEBAF1FF3F63
:1053900009D141462E20039B059298470028FFF62D
:1053A00066AE059AAF1C3D46D8E7742F3FF498AE21
:1053B0007A2F3FF495AEF6E61BF0800F18BF4BF442
:1053C000007B4BF0800B8BE61BF4807F18BF4BF407
:1053D000007B4BF4807B83E64BF4207B80E6264603
:1053E0005446B346B2467BE6FF4307F020030693DC
:1053F0000D9B1BF0400F03F1070323F0070303F19C
:105400000802D3E90001059B08BF0626652B0D9213
:1054100013D100221446731CDBB24BF4805B112BBA
:1054200028BF1123CDE900240EAA00F013FBC3B25C
:105430000227DDF838900493F7E6059B662B05D12B
:105440003446012211234BF4005BE8E70022652774
:10545000F3B2012B38BF012314460597DFE702277B
:10546000F4E6002B3FF406AFBAF1030F3BDC9DF8E6
:105470003C309B4E13F0080F9A4B08BF1E46B146B6
:105480004F4619F8010BB0BBAE1B374488E033BB65
:105490002B23EFE62BBB2D23ECE62022BAF1040FE1
:1054A00013DD1BF0080FAAF104040FD12C44414670
:1054B0002020039B04929847002805F10105FFF680
:1054C000D6ADA542049AF2D19AB1002441461046C5
:1054D000039B9847002805F10105C8DAC7E52B2290
:1054E000DCE72D22DAE71BF0080FAAF10304BED196
:1054F000DCE71446BBE7069B4146C01AC0B2039BDB
:1055000098470028BCDAB2E504990139C9B2049180
:10551000BAE6561ED3E60026D1E61BF4006F0CBF98
:10552000032405243C44D2E61BF0100F18BF0134BD
:10553000D4E60B934146039B2020984700280B9B01
:1055400005F10105BFF6D3AE91E541463020039B3E
:105550009847002805F10105BFF6F2AE87E5D14571
:105560000AD19DF83D30352B1DD805D19DF83C3032
:1055700013F0100F08BF31204146039B98470028C5
:10558000FFF675AD1BF0100F0AD0BAF1FF3F07D13F
:1055900041462E20AF1C039B98470028FFF667ADBD
:1055A0003D463C443EE23120E6E79DF83D00414661
:1055B00031281EBF9DF83C3023F010038DF83C309D
:1055C000039B98470028FFF652AD002E6BDD414645
:1055D0002E20039B98470028FFF649AD4FF0010AA3
:1055E000049B41469A45BDBF0EAB534458793020C9
:1055F000039B98470028D346FFF639AD0AF1010A0C
:105600005645EDDA02355D44DDE90532981A41462A
:10561000039BC0B298470028FFF629ADB9F1000FEF
:1056200004DB4ED19DF83C30DB064AD52D20C9F174
:1056300000094146039B98470028FFF618AD042F48
:1056400041D14FF47A7799FBF7F606F130004146E5
:10565000039BC0B29847002805F10305FFF607AD8C
:1056600007FB1699642799FBF7F606F130004146CF
:10567000039BC0B29847002805F10105FFF6F7AC7F
:1056800007FB16990A2799FBF7F606F13000414609
:10569000039BC0B29847002805F10105FFF6E7AC6F
:1056A00007FB169915E01BF0100F01D10135ABE790
:1056B00041462E20039B9847002805F10205A3DAF6
:1056C000D5E42B20B5E7032F05F10205CAD0012F41
:1056D000D8D109F1300041466F1CC0B25BE700BF72
:1056E000F38C000073830000A7F16303122B00F218
:1056F000FB80DFE813F013005300F900F900F90014
:10570000F9005300F900F900F900F900F90014015B
:10571000F400F900F9002800F900B50001240D9B00
:105720000EAF1A1D1B680D928DF838301BF0080F54
:105730002AD03E4607EB04094E4527D1EF1B3744DC
:10574000AAEB04042CE70D9B1A1D0D921F68AB4BAE
:10575000002F08BF1F461BF0400F14BF31464FF00B
:10576000FF31384601F074FF0446DFE74146202050
:10577000039B98470028FFF67AAC013EB442F5D36C
:105780005544AD1BB246D4E75646F7E7414616F8F6
:10579000010B039B98470028CEDA68E41BF0800FCA
:1057A0000D9B35D01BF4007F2DD0073323F007036A
:1057B00003F108020D92D3E900012BF01009002932
:1057C0001FFA89F936DA404261EB410149F48069F8
:1057D0000A230DF1380B5A4601F046FF19F0400F2D
:1057E000A0EB0B0B65D029F001025E4592B240F3AD
:1057F000B380002F00F0AA8019F0100334469146C0
:1058000026D002345CE01A1D18680D92C117D4E747
:105810001A1D1BF4807F19680D9201D10846F5E727
:105820001BF4007F15BF48B208B241F3C01141F329
:10583000C031C2E750EA0103CAD11BF0400FC7D004
:10584000002EC5D12BF0110B1FFA8BF93446B3464D
:1058500040F2064319EA03031CBF002301342FE082
:105860000A232BF0100B1FFA8BFB1BF080040D9A00
:1058700058D01BF4007115BF0732101D22F007022B
:105880000D900FBF106802F108010D91D2E90001DF
:1058900050EA010253D12BF016091BF0400F1FFAFA
:1058A00089F950D0002E4ED12BF0170B1FFA8BF92F
:1058B000B34619F0100353D0002F4FD10BF1010460
:1058C00019F0080F5FD119F0010F06D0A2456EDD67
:1058D000AAEB040404EB0B06544622464EE01023C8
:1058E00078274BF0100BC0E747F02003782B04D14A
:1058F000C7F1780343F01003B7E741462520039B27
:1059000098470028FFF6B3AB41463846039B9847BB
:105910000028FFF6ACAB0235079BFFF799BB0823C5
:105920000027A2E7111D0D911BF480711068AFD004
:105930001BF400711ABF2146C0B280B2A8E72BF059
:10594000060B1FFA8BF90DF1380B44E729F011090A
:1059500034461FFA89F97BE79146AAE75C4650E78F
:105960005C4675E7CDE9042341462020039B984718
:105970000028FFF67CAB049A059B01329245F1DCCE
:105980002C1BA5181446EBB141463020039B9847C9
:105990000028FFF66CAB67B901352F462E44F31B88
:1059A0005B4520DC5D460EAE55BB5F44C8E65E46F7
:1059B00093E7414638460235039B98470028ECDAC6
:1059C000FFF755BB40F2064319EA030FE5D019F083
:1059D000020F14BF2B20202019F4806F414618BFFE
:1059E0002D200135E8E741463020039B98470028E9
:1059F00007F10107D3DAFFF73ABB00BFF78C0000CD
:105A0000013D4146705D039B98470028CCDAFFF7C3
:105A10002EBB41462020039B9847002805F1010535
:105A2000FFF625AB631B002BF3DC75E71FB502AB5C
:105A30000093074A4FF0CC3301F0FAFEDDE9020192
:105A4000C00840EA4170C90805B05DF804FB00BF1A
:105A5000CDCCCCCC2DE9F04F9BB005920A460A93F1
:105A60009DF89030C2F30A55D20F0B930446C1F350
:105A700013030992090D7DB950EA03021BD13023AB
:105A80000126059A5371099B156043F002031371B7
:105A900030461BB0BDE8F08F40F2FF7295424AD10C
:105AA0000343099B059A14BF43F0080343F0040322
:105AB00000261371ECE700F00102089201229A46D9
:105AC00016464FEA8308AB4D48EA90788700C5F147
:105AD000000B5846069200F011FAB5F1FF3FACBF3B
